{"abi":[{"type":"function","name":"_msgSender","inputs":[],"outputs":[{"name":"sender","type":"address","internalType":"address"}],"stateMutability":"view"},{"type":"function","name":"_msgValue","inputs":[],"outputs":[{"name":"value","type":"uint256","internalType":"uint256"}],"stateMutability":"pure"},{"type":"function","name":"_world","inputs":[],"outputs":[{"name":"","type":"address","internalType":"address"}],"stateMutability":"view"},{"type":"function","name":"aggression","inputs":[{"name":"smartTurretId","type":"uint256","internalType":"uint256"},{"name":"characterId","type":"uint256","internalType":"uint256"},{"name":"priorityQueue","type":"tuple[]","internalType":"struct TargetPriority[]","components":[{"name":"target","type":"tuple","internalType":"struct SmartTurretTarget","components":[{"name":"shipId","type":"uint256","internalType":"uint256"},{"name":"shipTypeId","type":"uint256","internalType":"uint256"},{"name":"characterId","type":"uint256","internalType":"uint256"},{"name":"hpRatio","type":"uint256","internalType":"uint256"},{"name":"shieldRatio","type":"uint256","internalType":"uint256"},{"name":"armorRatio","type":"uint256","internalType":"uint256"}]},{"name":"weight","type":"uint256","internalType":"uint256"}]},{"name":"turret","type":"tuple","internalType":"struct Turret","components":[{"name":"weaponTypeId","type":"uint256","internalType":"uint256"},{"name":"ammoTypeId","type":"uint256","internalType":"uint256"},{"name":"chargesLeft","type":"uint256","internalType":"uint256"}]},{"name":"aggressor","type":"tuple","internalType":"struct SmartTurretTarget","components":[{"name":"shipId","type":"uint256","internalType":"uint256"},{"name":"shipTypeId","type":"uint256","internalType":"uint256"},{"name":"characterId","type":"uint256","internalType":"uint256"},{"name":"hpRatio","type":"uint256","internalType":"uint256"},{"name":"shieldRatio","type":"uint256","internalType":"uint256"},{"name":"armorRatio","type":"uint256","internalType":"uint256"}]},{"name":"victim","type":"tuple","internalType":"struct SmartTurretTarget","components":[{"name":"shipId","type":"uint256","internalType":"uint256"},{"name":"shipTypeId","type":"uint256","internalType":"uint256"},{"name":"characterId","type":"uint256","internalType":"uint256"},{"name":"hpRatio","type":"uint256","internalType":"uint256"},{"name":"shieldRatio","type":"uint256","internalType":"uint256"},{"name":"armorRatio","type":"uint256","internalType":"uint256"}]}],"outputs":[{"name":"updatedPriorityQueue","type":"tuple[]","internalType":"struct TargetPriority[]","components":[{"name":"target","type":"tuple","internalType":"struct SmartTurretTarget","components":[{"name":"shipId","type":"uint256","internalType":"uint256"},{"name":"shipTypeId","type":"uint256","internalType":"uint256"},{"name":"characterId","type":"uint256","internalType":"uint256"},{"name":"hpRatio","type":"uint256","internalType":"uint256"},{"name":"shieldRatio","type":"uint256","internalType":"uint256"},{"name":"armorRatio","type":"uint256","internalType":"uint256"}]},{"name":"weight","type":"uint256","internalType":"uint256"}]}],"stateMutability":"nonpayable"},{"type":"function","name":"inProximity","inputs":[{"name":"smartTurretId","type":"uint256","internalType":"uint256"},{"name":"characterId","type":"uint256","internalType":"uint256"},{"name":"priorityQueue","type":"tuple[]","internalType":"struct TargetPriority[]","components":[{"name":"target","type":"tuple","internalType":"struct SmartTurretTarget","components":[{"name":"shipId","type":"uint256","internalType":"uint256"},{"name":"shipTypeId","type":"uint256","internalType":"uint256"},{"name":"characterId","type":"uint256","internalType":"uint256"},{"name":"hpRatio","type":"uint256","internalType":"uint256"},{"name":"shieldRatio","type":"uint256","internalType":"uint256"},{"name":"armorRatio","type":"uint256","internalType":"uint256"}]},{"name":"weight","type":"uint256","internalType":"uint256"}]},{"name":"turret","type":"tuple","internalType":"struct Turret","components":[{"name":"weaponTypeId","type":"uint256","internalType":"uint256"},{"name":"ammoTypeId","type":"uint256","internalType":"uint256"},{"name":"chargesLeft","type":"uint256","internalType":"uint256"}]},{"name":"turretTarget","type":"tuple","internalType":"struct SmartTurretTarget","components":[{"name":"shipId","type":"uint256","internalType":"uint256"},{"name":"shipTypeId","type":"uint256","internalType":"uint256"},{"name":"characterId","type":"uint256","internalType":"uint256"},{"name":"hpRatio","type":"uint256","internalType":"uint256"},{"name":"shieldRatio","type":"uint256","internalType":"uint256"},{"name":"armorRatio","type":"uint256","internalType":"uint256"}]}],"outputs":[{"name":"updatedPriorityQueue","type":"tuple[]","internalType":"struct TargetPriority[]","components":[{"name":"target","type":"tuple","internalType":"struct SmartTurretTarget","components":[{"name":"shipId","type":"uint256","internalType":"uint256"},{"name":"shipTypeId","type":"uint256","internalType":"uint256"},{"name":"characterId","type":"uint256","internalType":"uint256"},{"name":"hpRatio","type":"uint256","internalType":"uint256"},{"name":"shieldRatio","type":"uint256","internalType":"uint256"},{"name":"armorRatio","type":"uint256","internalType":"uint256"}]},{"name":"weight","type":"uint256","internalType":"uint256"}]}],"stateMutability":"nonpayable"},{"type":"function","name":"supportsInterface","inputs":[{"name":"interfaceId","type":"bytes4","internalType":"bytes4"}],"outputs":[{"name":"","type":"bool","internalType":"bool"}],"stateMutability":"pure"}],"bytecode":{"object":"0x608060405234801561000f575f80fd5b506109fc8061001d5f395ff3fe608060405234801561000f575f80fd5b506004361061006f575f3560e01c8063b97822361161004d578063b9782236146100db578063e1af802c14610100578063ea49f0a814610108575f80fd5b806301ffc9a714610073578063119df25f1461009b57806345ec9354146100c8575b5f80fd5b61008661008136600461054a565b61011b565b60405190151581526020015b60405180910390f35b6100a36101b3565b60405173ffffffffffffffffffffffffffffffffffffffff9091168152602001610092565b604051601f193601358152602001610092565b6100f36100e9366004610791565b5091949350505050565b6040516100929190610812565b6100a36101c1565b6100f3610116366004610893565b6101ca565b5f7fffffffff0000000000000000000000000000000000000000000000000000000082167fb5dee1270000000000000000000000000000000000000000000000000000000014806101ad57507fffffffff0000000000000000000000000000000000000000000000000000000082167f01ffc9a700000000000000000000000000000000000000000000000000000000145b92915050565b5f6101bc61021b565b905090565b5f6101bc61024d565b60606101d88461025661025c565b90506101eb6101e56101c1565b86610345565b156102125761020f81604051806040016040528085815260200160648152506103df565b90505b95945050505050565b7fffffffffffffffffffffffffffffffffffffffffffffffffffffffffffffffcc36013560601c8061024a5750335b90565b5f6101bc6104b5565b50600190565b60605f835167ffffffffffffffff81111561027957610279610590565b6040519080825280602002602001820160405280156102b257816020015b61029f610500565b8152602001906001900390816102975790505b5090505f805b855181101561033b576102ea8682815181106102d6576102d6610903565b60200260200101515f01518663ffffffff16565b156103335785818151811061030157610301610903565b60200260200101518383806103159061095d565b94508151811061032757610327610903565b60200260200101819052505b6001016102b8565b5081529392505050565b6040517f974fa380000000000000000000000000000000000000000000000000000000008152600481018290525f90819073ffffffffffffffffffffffffffffffffffffffff85169063974fa38090602401602060405180830381865afa1580156103b2573d5f803e3d5ffd5b505050506040513d601f19601f820116820180604052508101906103d69190610994565b15949350505050565b60605f835160016103f091906109b3565b67ffffffffffffffff81111561040857610408610590565b60405190808252806020026020018201604052801561044157816020015b61042e610500565b8152602001906001900390816104265790505b5090505f5b845181101561048e5784818151811061046157610461610903565b602002602001015182828151811061047b5761047b610903565b6020908102919091010152600101610446565b5082818551815181106104a3576104a3610903565b60209081029190910101529392505050565b7f629a4c26e296b22a8e0856e9f6ecb2d1008d7e00081111962cd175fa7488e175545f9073ffffffffffffffffffffffffffffffffffffffff16806104fb573391505090565b919050565b604051806040016040528061053e6040518060c001604052805f81526020015f81526020015f81526020015f81526020015f81526020015f81525090565b81526020015f81525090565b5f6020828403121561055a575f80fd5b81357fffffffff0000000000000000000000000000000000000000000000000000000081168114610589575f80fd5b9392505050565b7f4e487b71000000000000000000000000000000000000000000000000000000005f52604160045260245ffd5b6040805190810167ffffffffffffffff811182821017156105e0576105e0610590565b60405290565b604051601f8201601f1916810167ffffffffffffffff8111828210171561060f5761060f610590565b604052919050565b5f60c08284031215610627575f80fd5b60405160c0810181811067ffffffffffffffff8211171561064a5761064a610590565b8060405250809150823581526020830135602082015260408301356040820152606083013560608201526080830135608082015260a083013560a08201525092915050565b5f82601f83011261069e575f80fd5b8135602067ffffffffffffffff8211156106ba576106ba610590565b6106c8818360051b016105e6565b82815260e092830285018201928282019190878511156106e6575f80fd5b8387015b8581101561072a5781818a031215610700575f80fd5b6107086105bd565b6107128a83610617565b815260c08201358682015284529284019281016106ea565b5090979650505050505050565b5f60608284031215610747575f80fd5b6040516060810181811067ffffffffffffffff8211171561076a5761076a610590565b80604052508091508235815260208301356020820152604083013560408201525092915050565b5f805f805f8061024087890312156107a7575f80fd5b8635955060208701359450604087013567ffffffffffffffff8111156107cb575f80fd5b6107d789828a0161068f565b9450506107e78860608901610737565b92506107f68860c08901610617565b9150610806886101808901610617565b90509295509295509295565b602080825282518282018190525f919060409081850190868401855b8281101561088657815180518051865287810151888701528681015187870152606080820151908701526080808201519087015260a0908101519086015286015160c085015260e0909301929085019060010161082e565b5091979650505050505050565b5f805f805f61018086880312156108a8575f80fd5b8535945060208601359350604086013567ffffffffffffffff8111156108cc575f80fd5b6108d88882890161068f565b9350506108e88760608801610737565b91506108f78760c08801610617565b90509295509295909350565b7f4e487b71000000000000000000000000000000000000000000000000000000005f52603260045260245ffd5b7f4e487b71000000000000000000000000000000000000000000000000000000005f52601160045260245ffd5b5f7fffffffffffffffffffffffffffffffffffffffffffffffffffffffffffffffff820361098d5761098d610930565b5060010190565b5f602082840312156109a4575f80fd5b81518015158114610589575f80fd5b808201808211156101ad576101ad61093056fea2646970667358221220908500afcf3c4a5c0d68a56c3e241b7c4d77fdd439db4564ab844b0a61588b7464736f6c63430008180033","linkReferences":{}},"methodIdentifiers":{"_msgSender()":"119df25f","_msgValue()":"45ec9354","_world()":"e1af802c","aggression(uint256,uint256,((uint256,uint256,uint256,uint256,uint256,uint256),uint256)[],(uint256,uint256,uint256),(uint256,uint256,uint256,uint256,uint256,uint256),(uint256,uint256,uint256,uint256,uint256,uint256))":"b9782236","inProximity(uint256,uint256,((uint256,uint256,uint256,uint256,uint256,uint256),uint256)[],(uint256,uint256,uint256),(uint256,uint256,uint256,uint256,uint256,uint256))":"ea49f0a8","supportsInterface(bytes4)":"01ffc9a7"},"id":146}