{"abi":[{"type":"function","name":"_msgSender","inputs":[],"outputs":[{"name":"sender","type":"address","internalType":"address"}],"stateMutability":"view"},{"type":"function","name":"_msgValue","inputs":[],"outputs":[{"name":"value","type":"uint256","internalType":"uint256"}],"stateMutability":"pure"},{"type":"function","name":"_world","inputs":[],"outputs":[{"name":"","type":"address","internalType":"address"}],"stateMutability":"view"},{"type":"function","name":"activate","inputs":[{"name":"characterId","type":"uint256","internalType":"uint256"}],"outputs":[],"stateMutability":"nonpayable"},{"type":"function","name":"getMembers","inputs":[],"outputs":[{"name":"","type":"uint256[]","internalType":"uint256[]"}],"stateMutability":"view"},{"type":"function","name":"getRank","inputs":[{"name":"characterId","type":"uint256","internalType":"uint256"}],"outputs":[{"name":"","type":"uint256","internalType":"uint256"}],"stateMutability":"view"},{"type":"function","name":"isMember","inputs":[{"name":"characterId","type":"uint256","internalType":"uint256"}],"outputs":[{"name":"","type":"bool","internalType":"bool"}],"stateMutability":"view"},{"type":"function","name":"supportsInterface","inputs":[{"name":"interfaceId","type":"bytes4","internalType":"bytes4"}],"outputs":[{"name":"","type":"bool","internalType":"bool"}],"stateMutability":"pure"},{"type":"event","name":"Store_SpliceDynamicData","inputs":[{"name":"tableId","type":"bytes32","indexed":true,"internalType":"ResourceId"},{"name":"keyTuple","type":"bytes32[]","indexed":false,"internalType":"bytes32[]"},{"name":"dynamicFieldIndex","type":"uint8","indexed":false,"internalType":"uint8"},{"name":"start","type":"uint48","indexed":false,"internalType":"uint48"},{"name":"deleteCount","type":"uint40","indexed":false,"internalType":"uint40"},{"name":"encodedLengths","type":"bytes32","indexed":false,"internalType":"EncodedLengths"},{"name":"data","type":"bytes","indexed":false,"internalType":"bytes"}],"anonymous":false},{"type":"event","name":"Store_SpliceStaticData","inputs":[{"name":"tableId","type":"bytes32","indexed":true,"internalType":"ResourceId"},{"name":"keyTuple","type":"bytes32[]","indexed":false,"internalType":"bytes32[]"},{"name":"start","type":"uint48","indexed":false,"internalType":"uint48"},{"name":"data","type":"bytes","indexed":false,"internalType":"bytes"}],"anonymous":false},{"type":"error","name":"EncodedLengths_InvalidLength","inputs":[{"name":"length","type":"uint256","internalType":"uint256"}]},{"type":"error","name":"GuildSystem__CannotDemoteBelowZero","inputs":[{"name":"characterId","type":"uint256","internalType":"uint256"}]},{"type":"error","name":"GuildSystem__OnlyGuildMaster","inputs":[]},{"type":"error","name":"Slice_OutOfBounds","inputs":[{"name":"data","type":"bytes","internalType":"bytes"},{"name":"start","type":"uint256","internalType":"uint256"},{"name":"end","type":"uint256","internalType":"uint256"}]},{"type":"error","name":"Store_IndexOutOfBounds","inputs":[{"name":"length","type":"uint256","internalType":"uint256"},{"name":"accessedIndex","type":"uint256","internalType":"uint256"}]},{"type":"error","name":"Store_InvalidResourceType","inputs":[{"name":"expected","type":"bytes2","internalType":"bytes2"},{"name":"resourceId","type":"bytes32","internalType":"ResourceId"},{"name":"resourceIdString","type":"string","internalType":"string"}]},{"type":"error","name":"Store_InvalidSplice","inputs":[{"name":"startWithinField","type":"uint40","internalType":"uint40"},{"name":"deleteCount","type":"uint40","internalType":"uint40"},{"name":"fieldLength","type":"uint40","internalType":"uint40"}]}],"bytecode":{"object":"0x608060405234801561000f575f80fd5b506121838061001d5f395ff3fe608060405234801561000f575f80fd5b5060043610610085575f3560e01c8063a5099bae11610058578063a5099bae146100fb578063b260c42a1461010e578063d50c737714610123578063e1af802c14610136575f80fd5b806301ffc9a714610089578063119df25f146100b157806345ec9354146100d15780639eab5253146100e6575b5f80fd5b61009c610097366004611bb6565b61013e565b60405190151581526020015b60405180910390f35b6100b96101d6565b6040516001600160a01b0390911681526020016100a8565b36601f1901355b6040519081526020016100a8565b6100ee6101e4565b6040516100a89190611bf5565b6100d8610109366004611c38565b61032b565b61012161011c366004611c38565b610373565b005b61009c610131366004611c38565b610477565b6100b96104b3565b5f7fffffffff0000000000000000000000000000000000000000000000000000000082167fb5dee1270000000000000000000000000000000000000000000000000000000014806101d057507fffffffff0000000000000000000000000000000000000000000000000000000082167f01ffc9a700000000000000000000000000000000000000000000000000000000145b92915050565b5f6101df6104bc565b905090565b60606102246040518060400160405280602081526020017f4775696c6453797374656d202d2063616c6c696e67206765744d656d626572738152506104ee565b5f61022d610562565b90505f805b82518110156102715782818151811061024d5761024d611c4f565b60200260200101515f14610269578161026581611c77565b9250505b600101610232565b505f8167ffffffffffffffff81111561028c5761028c611c8f565b6040519080825280602002602001820160405280156102b5578160200160208202803683370190505b5090505f5b82811015610323578381815181106102d4576102d4611c4f565b60200260200101515f1461031b578381815181106102f4576102f4611c4f565b602002602001015182828151811061030e5761030e611c4f565b6020026020010181815250505b6001016102ba565b509392505050565b5f61036a6040518060400160405280601d81526020017f4775696c6453797374656d202d2063616c6c696e672067657452616e6b0000008152506104ee565b6101d0826105bc565b6103b16040518060400160405280601e81526020017f4775696c6453797374656d202d2063616c6c696e6720616374697661746500008152506104ee565b5f6103bb82610654565b9050806001600160a01b03166103cf6101d6565b6001600160a01b03161461046a576040517f08c379a000000000000000000000000000000000000000000000000000000000815260206004820152603360248201527f4775696c6453797374656d202d204769766520796f7572206f776e206368617260448201527f6163746572496420746f2061637469766174650000000000000000000000000060648201526084015b60405180910390fd5b610473826106ef565b5050565b5f6104996040518060600160405280602c8152602001612122602c91396104ee565b6104a282610735565b5f6104ac836105bc565b1192915050565b5f6101df6107a8565b7fffffffffffffffffffffffffffffffffffffffffffffffffffffffffffffffcc36013560601c806104eb5750335b90565b61055f816040516024016105029190611cf0565b60408051601f198184030181529190526020810180517bffffffffffffffffffffffffffffffffffffffffffffffffffffffff167f41304fac000000000000000000000000000000000000000000000000000000001790526107b1565b50565b604080515f8082526020820190925260609161059f7f7462647265616d696e000000000000004775696c644d656d6265724c6973740083836107d1565b90506105b56105b0825f8451610892565b61091e565b9250505090565b6040805160018082528183019092525f9182919060208083019080368337019050509050825f1b815f815181106105f5576105f5611c4f565b60209081029190910101525f61064c7f7462647265616d696e000000000000004775696c644d656d626572730000000083837e2001002000000000000000000000000000000000000000000000000000000061092d565b949350505050565b6040805160018082528183019092525f9182919060208083019080368337019050509050825f1b815f8151811061068d5761068d611c4f565b60209081029190910101525f6106e47f7462657665776f726c64000000000000436861726163746572735461626c650083837e5403001420200000000000000000000000000000000000000000000000000061092d565b60601c949350505050565b6107106040518060600160405280602b81526020016120f7602b91396104ee565b5f61071a82610477565b90508061072a5761072a826109e7565b610473826003610a06565b61055f8160405160240161074b91815260200190565b60408051601f198184030181529190526020810180517bffffffffffffffffffffffffffffffffffffffffffffffffffffffff167ff5b1bba9000000000000000000000000000000000000000000000000000000001790526107b1565b5f6101df610abd565b80516a636f6e736f6c652e6c6f67602083015f808483855afa5050505050565b60605f6107dc610abd565b9050306001600160a01b03821603610801576107f9858585610afb565b91505061088b565b6040517f1e7889770000000000000000000000000000000000000000000000000000000081526001600160a01b03821690631e7889779061084a90889088908890600401611d3c565b5f60405180830381865afa158015610864573d5f803e3d5ffd5b505050506040513d5f823e601f3d908101601f191682016040526107f99190810190611d67565b9392505050565b5f818311806108a15750835182115b156108de578383836040517f23230fa300000000000000000000000000000000000000000000000000000000815260040161046193929190611e0f565b602084016108ec8482611e33565b90505f6108f98585611e46565b6fffffffffffffffffffffffffffffffff1660809290921b9190911795945050505050565b60605f61088b8360205f610b34565b5f80610937610abd565b9050306001600160a01b0382160361095d5761095586868686610bac565b91505061064c565b6040517f8c364d590000000000000000000000000000000000000000000000000000000081526001600160a01b03821690638c364d59906109a8908990899089908990600401611e59565b602060405180830381865afa1580156109c3573d5f803e3d5ffd5b505050506040513d601f19601f820116820180604052508101906109559190611e87565b5f6109f182610654565b90506109fd8183610be1565b61047382610c67565b6040805160018082528183019092525f9160208083019080368337019050509050825f1b815f81518110610a3c57610a3c611c4f565b602002602001018181525050610ab87f7462647265616d696e000000000000004775696c644d656d62657273000000005f1b825f85604051602001610a8391815260200190565b60408051601f198184030181529190527e20010020000000000000000000000000000000000000000000000000000000610c85565b505050565b7f629a4c26e296b22a8e0856e9f6ecb2d1008d7e00081111962cd175fa7488e175545f906001600160a01b031680610af6573391505090565b919050565b606061064c610b0b858585610d35565b5f610b2f85610b1a8989610db3565b9060ff166028026038011c64ffffffffff1690565b610dc5565b60605f610b418560801c90565b90506fffffffffffffffffffffffffffffffff85165f858281610b6657610b66611e9e565b0490506040519350602084016020820281016040528185525f5b82811015610ba0578451871c825293870193602090910190600101610b80565b50505050509392505050565b5f610bd8610bba8686610de8565b60ff858116601b0360080285901c16610bd38587610e3d565b610e6d565b95945050505050565b6040805160018082528183019092525f9160208083019080368337019050509050826001600160a01b03165f1b815f81518110610c2057610c20611c4f565b602002602001018181525050610ab87f7462647265616d696e0000000000000041646472657373546f436861726163745f1b825f85604051602001610a8391815260200190565b5f610c70610ebd565b9050610c7c8282610f03565b61047382610f80565b5f610c8e610abd565b9050306001600160a01b03821603610cb257610cad8686868686610fd5565b610d2d565b6040517f390baae00000000000000000000000000000000000000000000000000000000081526001600160a01b0382169063390baae090610cff9089908990899089908990600401611eb2565b5f604051808303815f87803b158015610d16575f80fd5b505af1158015610d28573d5f803e3d5ffd5b505050505b505050505050565b5f8383604051602001610d49929190611ef8565b604051602081830303815290604052805190602001208260f81b7effffffffffffffffffffffffffffffffffffffffffffffffffffffffffffff19167f3b4102da22e32d82fc925482184f16c09fd4281692720b87d124aef6da48a0f118185f1c90509392505050565b5f61088b610dc18484610ff1565b5490565b60405160208101601f19603f848401011660405282825261032385858584611046565b5f8282604051602001610dfc929190611ef8565b60408051601f1981840301815291905280516020909101207f86425bff6b57326c7859e89024fe4f238ca327a1ae4a230180dd2f0e88aaa7d9189392505050565b5f80805b8360ff1681101561032357610e6360ff601b83900360080287901c1683611e33565b9150600101610e41565b5f60208210610e9257602082048401935060208281610e8e57610e8e611e9e565b0691505b508254600882021b602082900380841115610323576001850154600882021c82179150509392505050565b604080515f808252602082019092525f610ef87f7462647265616d696e000000000000004775696c644d656d6265724c69737400838361110d565b602090049392505050565b6040805160018082528183019092525f9160208083019080368337019050509050825f1b815f81518110610f3957610f39611c4f565b602002602001018181525050610ab87f7462647265616d696e000000000000004775696c644d656d626572496e6465785f1b825f85604051602001610a8391815260200190565b604080515f80825260208201835291810183905290610473907f7462647265616d696e000000000000004775696c644d656d6265724c69737400908390606082016040516020818303038152906040526111bc565b610fea8585610fe48487610e3d565b85611267565b5050505050565b5f8282604051602001611005929190611ef8565b60408051601f1981840301815291905280516020909101207f14e2fcc58e58e68ec7edc30c8d50dccc3ce2714a623ec81f46b6a63922d76569189392505050565b82156110ca57602083106110705760208304840193506020838161106c5761106c611e9e565b0692505b82156110ca5760208390035f8184101561109157505f19600884021c61109a565b505f19600882021c5b8554600886021b8184511682198216178452508184116110bb575050611107565b50600194909401939182900391015b5b602082106110ec5783548152600190930192601f19909101906020016110cb565b811561110757805184545f19600885021c9182169119161781525b50505050565b5f80611117610abd565b9050306001600160a01b03821603611134576107f98585856114fb565b6040517fdbbf0e210000000000000000000000000000000000000000000000000000000081526001600160a01b0382169063dbbf0e219061117d90889088908890600401611d3c565b602060405180830381865afa158015611198573d5f803e3d5ffd5b505050506040513d601f19601f820116820180604052508101906107f99190611e87565b5f6111c5610abd565b9050306001600160a01b038216036111e8576111e38585858561150a565b610fea565b6040517f150f32620000000000000000000000000000000000000000000000000000000081526001600160a01b0382169063150f326290611233908890889088908890600401611f32565b5f604051808303815f87803b15801561124a575f80fd5b505af115801561125c573d5f803e3d5ffd5b505050505050505050565b7f6f74000000000000000000000000000000000000000000000000000000000000847fffff00000000000000000000000000000000000000000000000000000000000016036112f157837f8c0b5119d4cec7b284c6b1b39252a03d1e2f2d7451a5895562524c113bb952be8484846040516112e493929190611f65565b60405180910390a2611107565b5f6112fc8585610de8565b90505f61130886611542565b90505f5b81518110156113d6575f82828151811061132857611328611c4f565b602002602001015190506113546004826affffffffffffffffffffff19166115c790919063ffffffff16565b156113cd576040517f964f667d000000000000000000000000000000000000000000000000000000008152606082901c9063964f667d9061139f908b908b908b908b90600401611fa1565b5f604051808303815f87803b1580156113b6575f80fd5b505af11580156113c8573d5f803e3d5ffd5b505050505b5060010161130c565b50857f8c0b5119d4cec7b284c6b1b39252a03d1e2f2d7451a5895562524c113bb952be86868660405161140b93929190611f65565b60405180910390a2611426828565ffffffffffff16856115e4565b5f5b81518110156114f2575f82828151811061144457611444611c4f565b602002602001015190506114706008826affffffffffffffffffffff19166115c790919063ffffffff16565b156114e9576040517fa8ba8721000000000000000000000000000000000000000000000000000000008152606082901c9063a8ba8721906114bb908b908b908b908b90600401611fa1565b5f604051808303815f87803b1580156114d2575f80fd5b505af11580156114e4573d5f803e3d5ffd5b505050505b50600101611428565b50505050505050565b5f61064c82610b1a8686610db3565b5f6115158585610db3565b90505f611531828560ff166028026038011c64ffffffffff1690565b9050610d2d868686845f88886115fa565b6040805160018082528183019092526060915f91906020808301908036833701905050905082815f8151811061157a5761157a611c4f565b60209081029190910101525f6115b17f746273746f726500000000000000000053746f7265486f6f6b730000000000008383610afb565b905061064c6115c2825f8451610892565b611a1f565b5f8160ff16826115d78560581c90565b1660ff1614905092915050565b610ab8838383516115f58560200190565b611a2e565b7f7462000000000000000000000000000000000000000000000000000000000000877fffff00000000000000000000000000000000000000000000000000000000000016146116ba577f7462000000000000000000000000000000000000000000000000000000000000878860405160200161167891815260200190565b60408051601f19818403018152908290527f31b46683000000000000000000000000000000000000000000000000000000008252610461939291600401611fd9565b5f6116d4828760ff166028026038011c64ffffffffff1690565b90505f83518564ffffffffff16836116ec9190611e46565b6116f69190611e33565b905080821415801561171857508161170e8688612019565b64ffffffffff1614155b15611768576040517fa65010b400000000000000000000000000000000000000000000000000000000815264ffffffffff8088166004830152808716602483015283166044820152606401610461565b818664ffffffffff1611156117b9576040517f7e8578d30000000000000000000000000000000000000000000000000000000081526004810183905264ffffffffff87166024820152604401610461565b5f6117c5848984611ae9565b90505f6117d18b611542565b90505f5b8151811015611895575f8282815181106117f1576117f1611c4f565b6020026020010151905061181d6010826affffffffffffffffffffff19166115c790919063ffffffff16565b1561188c57606081901c6001600160a01b03166355eb5a288e8e8e8e8e8d8f6040518863ffffffff1660e01b815260040161185e979695949392919061203e565b5f604051808303815f87803b158015611875575f80fd5b505af1158015611887573d5f803e3d5ffd5b505050505b506001016117d5565b5064ffffffffff88165f5b8a60ff168160ff1610156118d3576118c7878260ff166028026038011c64ffffffffff1690565b909101906001016118a0565b508b7ffe158a7adba34e256807c8a149028d3162918713c3838afc643ce9f96716ebfd8c8c848c888d60405161190e9695949392919061209b565b60405180910390a25082841461192e575f6119298c8c610ff1565b839055505b5f61193a8c8c8c610d35565b905061194e818a64ffffffffff16896115e4565b505f5b8151811015611a11575f82828151811061196d5761196d611c4f565b602002602001015190506119996020826affffffffffffffffffffff19166115c790919063ffffffff16565b15611a0857606081901c6001600160a01b031663635845338e8e8e8e8e8a8f6040518863ffffffff1660e01b81526004016119da979695949392919061203e565b5f604051808303815f87803b1580156119f1575f80fd5b505af1158015611a03573d5f803e3d5ffd5b505050505b50600101611951565b505050505050505050505050565b60605f61088b8360155f610b34565b8215611aa65760208310611a5857602083048401935060208381611a5457611a54611e9e565b0692505b8215611aa65760208390035f5f19600885021c1990506008850281811c91508351811c9050811987541682821617875550818411611a97575050611107565b50600194909401939182900391015b5b60208210611ac85780518455600190930192601f1990910190602001611aa7565b8115611107575f5f19600884021c8554835182191691161785555050505050565b5f64ffffffffff821115611b2c576040517f7149a3c100000000000000000000000000000000000000000000000000000000815260048101839052602401610461565b8366ffffffffffffff811660ff851660280260380182901c64ffffffffff16808510611b5e5780850382019150611b66565b848103820391505b5064ffffffffff6038602860ff8816020181811b197fffffffffffffffffffffffffffffffffffffffffffffffffff000000000000009490941690921792909216918416901b1790509392505050565b5f60208284031215611bc6575f80fd5b81357fffffffff000000000000000000000000000000000000000000000000000000008116811461088b575f80fd5b602080825282518282018190525f9190848201906040850190845b81811015611c2c57835183529284019291840191600101611c10565b50909695505050505050565b5f60208284031215611c48575f80fd5b5035919050565b634e487b7160e01b5f52603260045260245ffd5b634e487b7160e01b5f52601160045260245ffd5b5f5f198203611c8857611c88611c63565b5060010190565b634e487b7160e01b5f52604160045260245ffd5b5f5b83811015611cbd578181015183820152602001611ca5565b50505f910152565b5f8151808452611cdc816020860160208601611ca3565b601f01601f19169290920160200192915050565b602081525f61088b6020830184611cc5565b5f815180845260208085019450602084015f5b83811015611d3157815187529582019590820190600101611d15565b509495945050505050565b838152606060208201525f611d546060830185611d02565b905060ff83166040830152949350505050565b5f60208284031215611d77575f80fd5b815167ffffffffffffffff80821115611d8e575f80fd5b818401915084601f830112611da1575f80fd5b815181811115611db357611db3611c8f565b604051601f8201601f19908116603f01168101908382118183101715611ddb57611ddb611c8f565b81604052828152876020848701011115611df3575f80fd5b611e04836020830160208801611ca3565b979650505050505050565b606081525f611e216060830186611cc5565b60208301949094525060400152919050565b808201808211156101d0576101d0611c63565b818103818111156101d0576101d0611c63565b848152608060208201525f611e716080830186611d02565b60ff949094166040830152506060015292915050565b5f60208284031215611e97575f80fd5b5051919050565b634e487b7160e01b5f52601260045260245ffd5b85815260a060208201525f611eca60a0830187611d02565b60ff861660408401528281036060840152611ee58186611cc5565b9150508260808301529695505050505050565b8281525f60208083018451602086015f5b82811015611f2557815184529284019290840190600101611f09565b5091979650505050505050565b848152608060208201525f611f4a6080830186611d02565b60ff851660408401528281036060840152611e048185611cc5565b606081525f611f776060830186611d02565b65ffffffffffff851660208401528281036040840152611f978185611cc5565b9695505050505050565b848152608060208201525f611fb96080830186611d02565b65ffffffffffff851660408401528281036060840152611e048185611cc5565b7fffff00000000000000000000000000000000000000000000000000000000000084168152826020820152606060408201525f610bd86060830184611cc5565b64ffffffffff81811683821601908082111561203757612037611c63565b5092915050565b87815260e060208201525f61205660e0830189611d02565b60ff8816604084015264ffffffffff87811660608501528616608084015260a0830185905282810360c084015261208d8185611cc5565b9a9950505050505050505050565b60c081525f6120ad60c0830189611d02565b60ff8816602084015265ffffffffffff8716604084015264ffffffffff8616606084015284608084015282810360a08401526120e98185611cc5565b999850505050505050505056fe4775696c6453797374656d202d2063616c6c696e67205f70726f6d6f7465546f4775696c644d61737465724775696c6453797374656d202d2063616c6c696e672069734d656d6265722028636861726163746572496429a264697066735822122026e01fe57e7e1eed99850435f101d688a53806a29109132b37a981ac53287a0764736f6c63430008180033","linkReferences":{}},"methodIdentifiers":{"_msgSender()":"119df25f","_msgValue()":"45ec9354","_world()":"e1af802c","activate(uint256)":"b260c42a","getMembers()":"9eab5253","getRank(uint256)":"a5099bae","isMember(uint256)":"d50c7377","supportsInterface(bytes4)":"01ffc9a7"},"id":124}