{"abi":[{"type":"function","name":"getPlayers","inputs":[],"outputs":[{"name":"","type":"address[]","internalType":"address[]"}],"stateMutability":"pure"}],"bytecode":{"object":"0x610c49610035600b8282823980515f1a60731461002957634e487b7160e01b5f525f60045260245ffd5b305f52607381538281f3fe730000000000000000000000000000000000000000301460806040526004361061004a575f3560e01c80638b5b9ccc1461004e5780639cc56a061461006c578063c424fc2214610098575b5f80fd5b6100566100c4565b604051610063919061084a565b60405180910390f35b818015610077575f80fd5b5061008b6100863660046108b1565b6103b8565b60405161006391906108f2565b8180156100a3575f80fd5b506100b76100b236600461091c565b610559565b604051610063919061093c565b60408051600a80825261016082019092526060915f9190602082016101408036833701905050905073f39fd6e51aad88f6f4ce6ab8827279cfffb92267815f81518110610113576101136109c7565b60200260200101906001600160a01b031690816001600160a01b0316815250507370997970c51812dc3a010c7d01b50e0d17dc79c88160018151811061015b5761015b6109c7565b60200260200101906001600160a01b031690816001600160a01b031681525050733c44cdddb6a900fa2b585dd299e03d12fa4293bc816002815181106101a3576101a36109c7565b60200260200101906001600160a01b031690816001600160a01b0316815250507390f79bf6eb2c4f870365e785982e1f101e93b906816003815181106101eb576101eb6109c7565b60200260200101906001600160a01b031690816001600160a01b0316815250507315d34aaf54267db7d7c367839aaf71a00a2c6a6581600481518110610233576102336109c7565b60200260200101906001600160a01b031690816001600160a01b031681525050739965507d1a55bcc2695c58ba16fb37d819b0a4dc8160058151811061027b5761027b6109c7565b60200260200101906001600160a01b031690816001600160a01b03168152505073976ea74026e726554db657fa54763abd0c3a0aa9816006815181106102c3576102c36109c7565b60200260200101906001600160a01b031690816001600160a01b0316815250507314dc79964da2c08b23698b3d3cc7ca32193d99558160078151811061030b5761030b6109c7565b60200260200101906001600160a01b031690816001600160a01b0316815250507323618e81e3f5cdf7f54c3d65f7fbc0abf5b21e8f81600881518110610353576103536109c7565b60200260200101906001600160a01b031690816001600160a01b03168152505073a0ee7a142d267c1f36714e4a8f75612f20a797208160098151811061039b5761039b6109c7565b6001600160a01b0390921660209283029190910190910152919050565b6103e260405180606001604052805f81526020015f6001600160a01b031681526020015f81525090565b6040805180820182525f808252602091820152815180830183526001600160a01b03881681527f657665776f726c6400000000000000000000000000000000000000000000000081830152825160608082018552606f82526001828501819052600a83870152855160a081018752600d9281019283527f6368617261637465724e616d6500000000000000000000000000000000000000608082015291825285518087018752600581527f6e6f55524c0000000000000000000000000000000000000000000000000000008187015282860152855180870187529081527f2e0000000000000000000000000000000000000000000000000000000000000081860152818601528451808601909552600885527f746f6b656e43696400000000000000000000000000000000000000000000000093850193909352909261053092849289928992899291610647565b5050604080516060810182529384526001600160a01b0392909216602084015290820152919050565b60605f6105646100c4565b90505f815167ffffffffffffffff8111156105815761058161099a565b6040519080825280602002602001820160405280156105dc57816020015b6105c960405180606001604052805f81526020015f6001600160a01b031681526020015f81525090565b81526020019060019003908161059f5790505b5090505f5b825181101561063f5761061a856105f98360016109f4565b85848151811061060b5761060b6109c7565b602002602001015160016103b8565b82828151811061062c5761062c6109c7565b60209081029190910101526001016105e1565b509392505050565b865f01516001600160a01b0316633ae7af0861067b896020015171ffffffffffffffffffffffffffffffffffff1916610772565b88888888888860405160240161069696959493929190610a79565b60408051601f198184030181529181526020820180517bffffffffffffffffffffffffffffffffffffffffffffffffffffffff167f036bb5d500000000000000000000000000000000000000000000000000000000179052517fffffffff0000000000000000000000000000000000000000000000000000000060e085901b168152610726929190600401610b4b565b5f604051808303815f875af1158015610741573d5f803e3d5ffd5b505050506040513d5f823e601f3d908101601f191682016040526107689190810190610b6b565b5050505050505050565b5f6107be7f7379000000000000000000000000000000000000000000000000000000000000837f536d6172744368617261637465725379000000000000000000000000000000006107c4565b92915050565b5f6107d1607060106109f4565b7fffff00000000000000000000000000000000000000000000000000000000000085167dffffffffffffffffffffffffffff00000000000000000000000000000000601086901c16177fffffffffffffffffffffffffffffffff00000000000000000000000000000000841690911c1790509392505050565b602080825282518282018190525f9190848201906040850190845b8181101561088a5783516001600160a01b031683529284019291840191600101610865565b50909695505050505050565b80356001600160a01b03811681146108ac575f80fd5b919050565b5f805f80608085870312156108c4575f80fd5b6108cd85610896565b9350602085013592506108e260408601610896565b9396929550929360600135925050565b815181526020808301516001600160a01b03169082015260408083015190820152606081016107be565b5f6020828403121561092c575f80fd5b61093582610896565b9392505050565b602080825282518282018190525f9190848201906040850190845b8181101561088a57610987838551805182526020808201516001600160a01b031690830152604090810151910152565b9284019260609290920191600101610957565b7f4e487b71000000000000000000000000000000000000000000000000000000005f52604160045260245ffd5b7f4e487b71000000000000000000000000000000000000000000000000000000005f52603260045260245ffd5b808201808211156107be577f4e487b71000000000000000000000000000000000000000000000000000000005f52601160045260245ffd5b5f5b83811015610a46578181015183820152602001610a2e565b50505f910152565b5f8151808452610a65816020860160208601610a2c565b601f01601f19169290920160200192915050565b5f6101008883526001600160a01b03881660208401528660408401528551606084015260208601516080840152604086015160a08401528060c08401528451606082850152610acc610160850182610a4e565b91505060208501517fffffffffffffffffffffffffffffffffffffffffffffffffffffffffffffff008085840301610120860152610b0a8383610a4e565b925060408701519150808584030161014086015250610b298282610a4e565b91505082810360e0840152610b3e8185610a4e565b9998505050505050505050565b828152604060208201525f610b636040830184610a4e565b949350505050565b5f60208284031215610b7b575f80fd5b815167ffffffffffffffff80821115610b92575f80fd5b818401915084601f830112610ba5575f80fd5b815181811115610bb757610bb761099a565b604051601f8201601f19908116603f01168101908382118183101715610bdf57610bdf61099a565b81604052828152876020848701011115610bf7575f80fd5b610c08836020830160208801610a2c565b97965050505050505056fea26469706673582212206c72228ebf0c83649f15554d3e99c8dca63511256b6e4e4456d8550ec020d1fa64736f6c63430008180033","linkReferences":{}},"methodIdentifiers":{"createCharacter(address,uint256,address,uint256)":"9cc56a06","createCharacters(address)":"c424fc22","getPlayers()":"8b5b9ccc"},"id":155}